:020000040800F2
:10000000B034002041020008BF1500081115000897
:1000100055150008871300087B5E000800000000EB
:10002000000000000000000000000000A95A0008C5
:10003000311400080000000003130008C15B000831
:100040005B0200085B0200085B0200085B0200081C
:100050005B0200085B0200085B0200085B0200080C
:100060005B0200085B0200085B0200085B020008FC
:100070005B0200085B0200085B0200085B020008EC
:100080005B0200085B0200085B0200085B020008DC
:100090005B0200085B0200085B0200085B020008CC
:1000A0005B0200085B0200085B0200085B020008BC
:1000B0005B0200085B0200085B0200085B020008AC
:1000C0005B0200085B0200085B0200085B0200089C
:1000D0005B020008455C00085B0200085B02000848
:1000E0005B0200085B0200085B0200085B0200087C
:1000F0005B0200085B0200085B0200085B0200086C
:100100005B0200085B0200085B0200085B0200085B
:100110005B0200085B0200085B0200085B0200084B
:100120005B0200085B0200085B0200085B0200083B
:100130005B0200085B0200085B0200085B0200082B
:100140005B0200085B0200085B0200085B0200081B
:100150005B0200085B0200085B0200085B0200080B
:100160005B0200085B0200085B0200085B020008FB
:100170005B0200085B0200085B0200085B020008EB
:100180005B0200085B02000800F002F800F049F88A
:100190000AA090E8000C82448344AAF10107DA45E2
:1001A00001D100F03EF8AFF2090EBAE80F0013F0EB
:1001B000010F18BFFB1A43F001031847E066000067
:1001C00000670000103A24BF78C878C1FAD85207F7
:1001D00024BF30C830C144BF04680C6070470000C1
:1001E0000023002400250026103A28BF78C1FBD840
:1001F000520728BF30C148BF0B607047662906F020
:10020000F981002070471FB506F0EFF900F00CFBF4
:1002100004000020002106F05BF9E0601FBD10B56E
:1002200010BD00F01DFC1146FFF7EDFF05F0ACFF1F
:1002300000F03BFC03B4FFF7F2FF03BC05F03EFE09
:100240000948804709480047FEE7FEE7FEE7FEE76A
:10025000FEE7FEE7FEE7FEE7FEE7FEE704480549A6
:10026000054A064B70470000DD5B00088901000865
:10027000B02E0020B0340020B0300020B03000207C
:1002800072B6704762B67047EFF3108072B670476F
:1002900080F31088704730BF704720BF7047B0FAB6
:1002A00080F0704790FAA0F0B0FA80F0704790FAB2
:1002B000A0F07047704700000FB4044910B503AABE
:1002C000029800F09FFA10BC5DF814FB14000020A7
:1002D0002DE9F0474FF0000A89460446C0F820A0F7
:1002E0002046E1688847002876D0252806D0D4E942
:1002F00001219047206A401C2062F1E7E168204616
:1003000000258847C4F81CA006460027C4F818A09A
:100310002A2E09D0304605F0CAFD38B304EB870811
:10032000303EC8F8186019E059F8041B204604EB69
:1003300087029161E1688847012F064618D1E0697C
:10034000002820DA25F020051DE0D8F8180000EB81
:10035000800006EB40003038C8F818002046E168FD
:100360008847064605F0A3FD0028EED1012F0AD0EC
:100370002E2E08D12046E16888477F1C0646022FB2
:1003800045F02005C4DBA069002803DA404245F0AF
:100390000105A061E80701D025F01005B6B1A6F16E
:1003A0004100192802D8203645F400654A463146F6
:1003B000204625604D46FFF721FF58B1012806D0A1
:1003C000ED1D25F0070000F1080989E704E005F1BB
:1003D000040985E730468AE7206ABDE8F087704760
:1003E00070477047704770472DE9FF4F0C461E4617
:1003F0004FF0FF378BB0D2E90001DDF860800A9042
:100400008A46C1F30A5505B93D46002108464FF01A
:100410000000BAF1000F00F4400005DA00EB8000A4
:100420004FF4400101EA50004FEA9059B9F1010F31
:1004300000DDB9460A9850EA4A000ED044F6105042
:10044000A5F2FF3545432F14B8F1000F1ED07542B9
:10045000291E1EDDC9F100021CE0B8F1010F4FF0AA
:10046000000001D0302103E0F24305E02154401C9C
:10047000B042FBDB30460022002121540B99C1F829
:100480000880C1E900200FB0BDE8F08FBD1B6D1CD6
:10049000DEE74A4600DA694206A800F067FA06ABD2
:1004A00093E8070003AB83E8070050460A9900F081
:1004B00045FB8DE80700A0F500501F380090039819
:1004C000002D0ADD42F21F014A460844002303A919
:1004D0000390684600F0AEFD09E0A0F500504A46E2
:1004E0001F38002303A90390684600F0B8FD8DE88B
:1004F00007000004000C03D04FF0FF30410800E07B
:100500001046B8F1000F03D00022009215461EE0FD
:10051000751E05D400F08CF9303262556D1EF9D588
:10052000B3460122084302D000227F1C04E0207859
:10053000302801D100227F1E002A099784D01DE0B7
:10054000112D07DA00F074F9303262556D1C50EA53
:100550000102F5D1084302D00098C8B10EE0002195
:10056000681E05E0235C625C63542254401E491CF3
:100570008142F7DBAB46A81B401E0990002004F81F
:100580000B000B98099AC0F80880C0E9002B7AE7A5
:1005900011264FF0000857E72DE9F04F8846044632
:1005A000D21D22F0070191B0D1E90001CDE90A0185
:1005B00005F065FC02460B98C00F01D02D2007E026
:1005C0002068810701D52B2002E0202101EAC0002C
:1005D000032A099001D0072A05DB0346414620463D
:1005E00000F084F90BE12078800601D5E06900E095
:1005F0000620B8F1650F814606D0B8F1660F18D015
:10060000B8F1670F70D131E00020B9F1110F0090FF
:1006100001DB112301E009F101030AAA01A90CA8D9
:10062000FFF7E2FEDDE90C70002609F101058346C3
:1006300047E001204B4600904FF000470AAA01A96D
:100640000CA8FFF7D1FEDDE90DB00C995D46002640
:1006500010B909F101000D18B9EB050003D4C0F180
:10066000FF3609F10105A5EB09002BE0B9F1010FF7
:1006700001DA4FF001090020B9F1110F009048464E
:1006800001DD112300E003460AAA01A90CA8FFF727
:10069000ABFEDDE90C704D4600268346207800074E
:1006A0000AD4AB4500DA5D4601A8012D04DD4119ED
:1006B00011F8011C302907D04F4502DA17F1040F59
:1006C00004DA012082460FE06D1EEEE7002F02DC07
:1006D000ED1B3E4403E0781CA84200DD7D1CB81BE6
:1006E00000F1010A4FF000472078000703D4AA4523
:1006F00001DB4FF0FF3A0021B7F1004F0DF1430845
:100700008DF8431024D002202B23002F01DA7F42E2
:100710002D230A21021EA0F1010000DC5FB197FB2E
:10072000F1FC97FBF1F201FB1C7C17460CF1300C3D
:1007300008F801CDEEE7A8F1010003702188090552
:1007400001D5452100E06521A0F1010800F8011C58
:1007500009980FA9A1EB0807FF1D00B1012041195D
:1007600001EBEA70A1693844081A401EA0612078A4
:10077000C00602D42046AFF30080099828B1D4E91E
:1007800001219047206A401C20622078C00622D5B3
:100790002046AFF300801EE0002E04DBB34502DDEF
:1007A00001A8805D00E03020D4E901219047206A53
:1007B000401C2062761CAAF101005FEA000A0AD1FF
:1007C00000F032F8C0680168405CD4E9012190472C
:1007D000206A401C2062281EA5F10105DCDC07E030
:1007E000D4E9012118F8010B9047206A401C2062CF
:1007F000381EA7F10107F3DC2046AFF30080032089
:1008000011B041E6074B70B50D467B4400F05BF834
:100810000446284600F01CF910B14FF0FF3070BDBF
:10082000204670BDD758000000487047702E002049
:1008300030B5B0F10A024FEA900E71F100034EEAB2
:10084000817EB0EB0E0061EB91014FEA101E4EEA83
:10085000017E10EB0E0041EB11114FEA102E4EEA13
:10086000016E10EB0E0041EB11214FEA104E4EEAE3
:10087000014E10EB0E0041EB1141401841F1000117
:100880004FEAD00040EA41704FEAD10110EB8005F9
:100890004FEA810444EA907444EB01046D1944EB7F
:1008A0000404521BA3414FF0000348BF0A3200D595
:1008B00030BD401C41F1000130BD000001694A1CFF
:1008C00002610878704700B58FB0CDE90131002191
:1008D000059105497944CDE9031011466846FFF7B3
:1008E000F7FC0FB000BD0000E5FFFFFF2DE9F04170
:1008F0001F46044603260168072A01F4006004DB52
:1009000008B116A505E016A503E008B115A500E09D
:1009100015A521F010002060A069C01EA0610FB1D4
:10092000401EA0612046AFF300804FB1D4E9012101
:1009300038469047206A401C2062C01C206206E0B6
:10094000206AFAE7D4E9012115F8010B9047761ED9
:10095000F8D22046AFF30080BDE8F0814E414E0052
:100960006E616E00494E4600696E66002DE9F047E3
:10097000814616468AB0354878440DC88DE80D008A
:1009800032487844801C03AC0DC884E80D0041F661
:100990009B300844372190FBF1F290FBF1F5A5F173
:1009A000800501FB12041B3C02D56442012000E0DB
:1009B0000020DFF898A080460027FA44AAF1BE0A7A
:1009C0000EE0E0070AD03246684607EB47010123F4
:1009D0000AEB810100F043FB8DE8070064107F1CE7
:1009E000002CEED1194F7F44AE3F19E0E80715D037
:1009F00007EB04100DF1180A90E80E008AE80E00CB
:100A0000C068F04201D1981908903246012306A926
:100A100003A800F024FB03AB83E807006D10641CFF
:100A2000002DE3D14FF0010332466946B8F1000FC3
:100A300003A802D000F0FEFA01E000F010FBC9E9C3
:100A40000001C9F808200AB0BDE8F087085F00007F
:100A5000007B00F08000704700487047502E002057
:100A60007546FFF7F9FFAE4605006946534620F08C
:100A70000700854618B020B5FFF7F0FBBDE8204021
:100A80004FF000064FF000074FF000084FF0000B4A
:100A900021F00701AC46ACE8C009ACE8C009ACE8FD
:100AA000C009ACE8C0098D46704710B50446AFF3E5
:100AB00000802046BDE81040FFF7BCBB4FF0013C72
:100AC00050F8042B51F8043B9A4221D1A2EB0C03BD
:100AD000934313EACC1317D150F8042B51F8043B7D
:100AE0009A4215D1A2EB0C03934313EACC130BD11A
:100AF00050F8042B51F8043B9A4209D1A2EB0C03A5
:100B0000934313EACC13DBD04FF00000704700BFD3
:100B1000D01A01BAB1FA81F101F0180122FA01F0FC
:100B2000CB40C1F12001DBB2C0B2C01A2CFA01F3F4
:100B3000D11A914311EAC311E6D170475FEA400C24
:100B400008BF91F0000F4FEA8C234FEAC12243EA1D
:100B500051514FEA1C5018BF00F5F0404FEA3000E9
:100B600018BF41F000415FEA6C5C00F02980BCF1E5
:100B7000FF3F08BF40F080407047130C06BF1204CF
:100B80004FF0100C4FF0000C130E04BF12020CF1CA
:100B9000080C130F04BF12010CF1040C930F04BFD7
:100BA00092000CF1020CD30F04BF52000CF1010CA7
:100BB00011464FF00002A0F11F00A0EB0C0070479F
:100BC00011F0004F08BF704731F000413FF4D5AF3E
:100BD0000B0C06BF09044FF0100C4FF0000C0B0E6D
:100BE00004BF09020CF1080C0B0F04BF09010CF142
:100BF000040C8B0F04BF89000CF1020CCB0F04BF57
:100C000049000CF1010CCCF12003A0EB0C0022FAFE
:100C100003F302FA0CF241EA030100F1010070470C
:100C200020F07F4C80EA030023F07F47ACEB070302
:100C300003F57C5300F0004003F1FF032DE98049E8
:100C40004FEA154B09B44FEA144325EA0B4E24EA48
:100C500003480FF2042606EB132749083E785FEAA3
:100C6000320203FB0667C7F5000707FB06F64FEAEB
:100C700054374FEAD64606F1020607FB066CCCF164
:100C8000005C4FEA1C472CEA074C07FB06F40CFB00
:100C900006F504EB15464FEA961634BF00204FF0D8
:100CA00000404FEAD13706FB07FC4FEA1C4C0CFB17
:100CB0000BF7D21B03FB0CF761EB07010CFB0EF7E4
:100CC000B0EB074072EB17420CFB08F734BFA2EB06
:100CD0000742B2EB074261EB17414FEA0C444FEA7F
:100CE000910706FB07FC4FEA1C4C0CFB0BF7B0EB23
:100CF000C74072EB573203FB0CF734BFA2EBC7427D
:100D0000B2EBC74261EB57310CFB0EF7B0EBC700FB
:100D100072EB57720CFB08F734BFA2EBC702B2EBC1
:100D2000C70261EB5771039F4FEA816141EA92115B
:100D300004EBCC044FEAD1374FEA826206FB07FC92
:100D400042EA90124FEA80604FEA1C4C0CFB0BF712
:100D5000D21B03FB0CF761EB07010CFB0EF7B0EBAA
:100D6000074072EB17420CFB08F734BFA2EB0742B7
:100D7000B2EB074261EB17414FEA8C554FEA9107FE
:100D800004EB9C2406FB07FC4FEA1C4C0CFB0BF706
:100D9000B0EBC74072EB573203FB0CF734BFA2EB4A
:100DA000C742B2EBC74261EB57310CFB0EF7B0EB19
:100DB000C70072EB57720CFB08F734BFA2EBC702F7
:100DC000B2EBC70261EB577115EB4C254FEA81611D
:100DD00041EA92114FEA82624FEAD13742EA901219
:100DE00006FB07FC44F100044FEA80604FEA1C4C0C
:100DF0000CFB0BF7D21B03FB0CF761EB07010CFBA1
:100E00000EF7B0EB074072EB17420CFB08F734BF4C
:100E1000A2EB0742B2EB074261EB174115EB1C1541
:100E20004FEA813141EA92414FEA823242EA9042EE
:100E30004FEA80304FEA0C7644F1000448EA03435D
:100E40004EEA0B484FF0000EB2EB080C71EB0307B3
:100E500024BF624639464EEB0E0E4FF0000B0018D1
:100E6000524149414BEB0B0BB2EB080C71EB030702
:100E70007BF1000B24BF624639464EEB0E0E4FF05D
:100E8000000B0018524149414BEB0B0BB2EB080C25
:100E900071EB03077BF1000B24BF624639464EEB32
:100EA0000E0E51EA020718BF46F0010616EB0E7649
:100EB00055F1000254F1000103D5BDE88901BDE8F8
:100EC0000088BDE88901BDE80048B619524141EBF0
:100ED0000101A3F10103704780807F7E7D7C7B7AD6
:100EE0007978777676757473727171706F6E6E6DD6
:100EF0006C6C6B6A6A69686867666665646463637C
:100F000062616160605F5F5E5E5D5D5C5C5B5B5A01
:100F10005A5959585857575656555555545453536E
:100F200052525251515050504F4F4F4E4E4D4D4DC9
:100F30004C4C4C4B4B4B4A4A4A4949494848484714
:100F40004747474646464545454444444443434352
:100F50004342424242414141002B9C4630D47700FB
:100F60002BD01CB54FEA370703B44FF010004FF0F9
:100F70001001BAF1000F06D0BCF1000FDCBF40F049
:100F8000080040F008014FF000000FBCBDE8104021
:100F90000BF1010BBBF1010F08BF5FEA170722BF7E
:100FA00012F1010211F101014FF0004143F1000380
:100FB00000F0004043EA00007047F9D35708D0E73B
:100FC00046EA064613F1400F4FEA16461FDD13F1BD
:100FD000200FDFBF16430A46002120335B42BED0FC
:100FE000C3F1200746EA064602FA07F74FEA16461B
:100FF00046EA0706C3F1200722FA03F201FA07F7CF
:1010000021FA03F14FF0000342EA0702A7E746EA9C
:10101000020646EA06464FEA164646EA0106BCBF05
:1010200046EA0646360C4FF000034FF000024FF040
:10103000000194E72DE9804C9A46934670B491E8FC
:10104000380007C831EA400C48BF34EA430C03D5E6
:10105000FFF7E6FDFFF780FFF0BCBDE8008C2DE94F
:10106000804C9A46934670B491E8380007C810F057
:10107000804F08BF13F0804F03D100F005F8FFF751
:101080006BFFF0BCBDE8008C20F07F4780EA0300D6
:1010900023F07F4C07EB0C03A3F57C5300F00040DA
:1010A000A3F1FE0392F0000F00F0B38095F0000F63
:1010B00000F077802DE901494FEA11404FEA1446CC
:1010C00021EA004800FB06FC24EA064708FB06F676
:1010D00007FB08F800FB07F718EB06484CEB164C2B
:1010E0004FEA124B18EB07484FEA15464CEB1740F6
:1010F00022EA0B4E0BFB06FC25EA06470EFB06F622
:1011000007FB0EFE0BFB07F71EEB064E4CEB164CD7
:101110004FF000061EEB074E4CEB174B18EB0B087D
:1011200040F1000018EB0E0B58EB000840F10000F6
:101130008F1A4FF000013CBFC943661B14BFB5EBCB
:10114000040C00213CBFC943F61B4FEA17444EEA8A
:101150008E0E27EA04454FEA1C4704FB07622CEA7F
:10116000074C05FB07F70CFB05F604FB0CFC16EB24
:10117000074642EB174216EB0C4642EB1C421BEBB8
:10118000060658EB0202414146EA9E0601D5BDE83B
:101190000189B619524141EB0101A3F10103BDE8F8
:1011A00001894FEA14454FEA114724EA054621EA2E
:1011B000074C05FB07F406FB07F70CFB06F105FBE4
:1011C0000CFC11EB074144EB17444FEA124711EBBB
:1011D0000C4144EB1C4422EA074C05FB07F206FBDA
:1011E00007F70CFB06F605FB0CFC16EB074642EB7B
:1011F000174216EB0C4642EB1C456A1854F10001ED
:1012000048BF7047B619524141EB0101A3F10103F8
:10121000704795F0000F37D04FEA11424FEA14475C
:1012200021EA024624EA074C02FB07F106FB07F716
:101230000CFB06F402FB0CFC14EB074441EB1741DA
:101240004FEA154714EB0C4441EB1C4125EA074CCF
:1012500002FB07F506FB07F70CFB06F602FB0CFC8E
:1012600016EB074645EB174516EB0C4645EB1C42C3
:10127000121951F1000148BF7047B619524141EBB4
:101280000101A3F1010370474FEA14454FEA1147EA
:1012900024EA054621EA074C05FB07F106FB07F7A0
:1012A0000CFB06F24FF0000605FB0CFC12EB0742AC
:1012B00041EB174112EB0C4251EB1C4148BF704708
:1012C000921841EB0101A3F10103704722484FF648
:1012D000FF710170002080F309882048016881F3C4
:1012E00008881F484FF08051016062B6FEE71C4835
:1012F0004FF080510160704719484FF080510160F4
:10130000704772B6EFF3098050B11EF0100F08BF9E
:1013100020ED108A203880E8F00F12490968086033
:1013200000B5114880475DF804EB104810490A7871
:1013300002700C480F490A680260106890E8F00FCC
:1013400020301EF0100F08BFB0EC108A80F309881F
:101350004EF0040E62B6704722ED00E0F40000206B
:1013600004ED00E0EC000020512900087A00002084
:101370007B000020F00000201FB5684604F020FB31
:10138000019804B010BD00BFFEE710B500F020F8D2
:1013900000F01AF810BD000010B5002400BF00BF17
:1013A000FEF772FF044600BF00BF1021054800F0A1
:1013B000D3F800BF00BF2046FEF76AFF00BF00BFA2
:1013C00010BD0000D012002010B5FFF7E5FF10BDE2
:1013D00010B500200249086000F00AF810BD0000B6
:1013E0002000002001490860704700002000002014
:1013F00010B5FFF7C1FF04460848006840F0807050
:10140000064908600020064948600846006840F028
:10141000010008602046FFF7E5FF10BDFCED00E08D
:10142000001000E00149486870470000001000E02B
:101430007047F0B50A4600210023002400BF3DE0BC
:10144000012505FA01F3156805EA03049C4234D12D
:1014500005684F000326BE40B543056015794E0070
:10146000B5400668354305601579012D02D0157920
:10147000022D16D185684F000326BE40B543856016
:1014800055794E00B540866835438560456801262C
:101490008E40B5434560456896798E40B6B2354377
:1014A0004560C5684F000326BE40B543C560D57989
:1014B0004E00B540C6683543C560491C1029BFD3EE
:1014C000F0BDF0B5002300244D07ED0E02FA05F340
:1014D000CE1000F1200555F826504E07F70E0F26C6
:1014E000BE40B543CF1000F1200646F82750CE107D
:1014F00000F1200555F8265045EA0304CE1000F10E
:10150000200545F82640F0BD4183704701837047B0
:1015100000BFFEE71CB50121202004F031FA4FF492
:10152000C060009001208DF8040000208DF80600B6
:1015300003208DF8050001208DF807006946044856
:10154000FFF777FF4FF4C0610148FFF7DFFF1CBDD5
:101550000014024000BFFEE730B505460C462246A7
:101560000021284600F001F830BD2DE9F041054684
:101570000B4694460027002402E03F021F43641CF0
:10158000042CFAD3604605F00306294646B13446DA
:1015900003E001F8013B401E641C08B1042CF8D3A1
:1015A0000A4601E080C2001F0428FBD2114602E077
:1015B00001F8013B401E0028FAD1BDE8F0817047D8
:1015C00070B5002100230F22C4781CB3174C246887
:1015D00004F4E064C4F5E064C4F30721C1F1040439
:1015E000E3B20A4144789C40E1B28478144021433C
:1015F0000C07210E0E4C05786155047804F01F0588
:101600000124AC4005786D11AD0005F1E025C5F869
:10161000004109E0047804F01F050124AC40054DA9
:101620000678761145F8264070BD00000CED00E00C
:1016300000E400E080E100E002490143024A116059
:10164000704700000000FA050CED00E01548164850
:1016500016481748174818481848194819481A488A
:101660001A481B481B481C481C481D481D481E485A
:101670001E481F481F48204820482148214822482A
:1016800022482348234824482448254825482648FA
:10169000264827482748284828482948294800BF7D
:1016A0007047000098660008F8650008FC650008AF
:1016B0000066000804660008086600080C6600085A
:1016C0001066000814660008186600081C6600080A
:1016D0002066000824660008286600082C660008BA
:1016E0003066000834660008386600083C6600086A
:1016F0004066000844660008486600084C6600081A
:101700005066000854660008586600085C660008C9
:101710006066000864660008686600086C66000879
:101720007066000874660008786600087C66000829
:101730008066000884660008886600088C660008D9
:10174000906600089466000810B50348006810B160
:1017500001480068804710BD3800002070B504467D
:1017600000F0C2F80020484908704849087048490C
:101770000870484908604849086048490870484965
:101780000870484908704849086048490860484955
:10179000086048490870484800680A21B0FBF1F029
:1017A000464908604648006858B14648056845B152
:1017B0004348066803E0761E002028602D1D002E99
:1017C000F9D100204049086040490860404908605C
:1017D0004049086040490860404908604049086045
:1017E0004049087002F0ECF902F0CCFA204601F012
:1017F0007BFB208800B170BD204601F05DFF208892
:1018000000B1F8E7204601F07FFF208800B1F2E741
:10181000204602F04BF8208800B1ECE7204602F0A9
:10182000FFF9208800B1E6E7204602F01FFC20887F
:1018300000B1E0E7204602F041FF208800B1DAE77E
:10184000204601F0A5FE208800B1D4E7204601F033
:10185000BDFC208800B1CEE7204603F09FFE208823
:1018600000B1C8E7204602F06DFE208800B1C2E753
:10187000204603F0EFFE208800B1BCE701F05CFADF
:10188000FFF7E4FE00BFB6E74C0000204D0000204B
:1018900094000020EC000020F00000207A000020DE
:1018A0007B0000207C000020880000208C000020AD
:1018B000900000209C00002058660008980000203E
:1018C00028660008246600082C0000203000002054
:1018D00034000020380000203C00002040000020A0
:1018E00044000020CA000020064800680649096834
:1018F00000EB8100054908600846006820F00700F9
:10190000086070472466000828660008F40000207C
:1019100008480078012800D0704707480078FA2866
:1019200000DBF9E704480078401C0349087000BF59
:10193000F2E700004D0000204C00002010B500240C
:101940002D480078012800D010BD00BFFEF79CFC98
:10195000044600BF2948007828B900BF2046FEF79A
:1019600097FC00BFF0E725480078401E2349087027
:1019700008460078002805DD00BF2046FEF788FCF9
:1019800000BFE1E71E480078002805DD00BF2046C3
:10199000FEF77EFC00BFD7E702F0FEF81949087099
:1019A0000846007800EB4000174951F8200017491D
:1019B00008600846006816490968884205D100BFDA
:1019C0002046FEF765FC00BFBEE710480068D0F86F
:1019D0009000401C0D490968C1F890000D4800684E
:1019E000401C0C490860FFF787FC00BF2046FEF74B
:1019F0004FFC00BF00BFA7E74D0000204C000020B7
:101A0000940000207B00002004290020F00000202A
:101A1000EC000020C000002010B500241F48007812
:101A2000002800DD10BD1E480078002800DDF9E721
:101A300000BFFEF729FC044600BF02F0ADF81949CB
:101A400008700846007800EB4000174951F8200064
:101A5000164908600846006815490968884205D19A
:101A600000BF2046FEF714FC00BFDBE70F4800680C
:101A7000D0F89000401C0D490968C1F890000D484D
:101A80000068401C0B490860FFF731FC00BF20468E
:101A9000FEF7FEFB00BF00BFC4E700004C000020C3
:101AA000940000207B00002004290020F00000208A
:101AB000EC000020C000002070B504460025184846
:101AC0000078002803DD46F66250208070BD15487E
:101AD0000078012803D045F689602080F6E7124897
:101AE0000078FA2803DB45F209202080EEE700BFEA
:101AF00000BFFEF7C9FB054600BF00BF0A480078DB
:101B0000401C0949087002F01DFA00BF00BF2846BA
:101B1000FEF7BEFB00BF00BF0020208000BFD5E75E
:101B20004C0000204D000020940000202DE9F041E1
:101B300005460C461646002700BF00BFFEF7A4FB73
:101B4000074600BF00BF012D03D000200D490870DB
:101B500002E001200B49087014B10B48046006E054
:101B60000A4800680A21B0FBF1F00749086000BF8D
:101B700000BF3846FEF78CFB00BF00BF002030805E
:101B8000BDE8F0819C000020980000205866000805
:101B900070B50446002520480078002803DD46F68D
:101BA0006550208070BD1D480078012803D045F69F
:101BB00089602080F6E71A48007818B946F6645024
:101BC0002080EFE700BF00BFFEF75EFB054600BFC9
:101BD00000BF13480078401E11490870084600787D
:101BE00000280ADD00BF00BF2846FEF751FB00BFFA
:101BF00000BF46F663502080D4E702F0B1F900BF81
:101C000000BF2846FEF744FB00BF00BFFFF704FFFC
:101C10000020208000BFC5E74C0000204D000020C0
:101C20009400002010B5044612480078E8B901F08D
:101C3000B3FF1149087008460078104908700E4833
:101C4000007800EB40000E4951F820000D49086073
:101C5000084600680C490860012006490870FFF733
:101C600035FB43F69920208002E045F68A6020800B
:101C700010BD00004D0000207B0000207A000020F5
:101C800004290020F0000020EC0000202DE9F041A4
:101C900007464FF0000800BF00BFFEF7F5FA804688
:101CA00000BF00BF00203D4908603D4908803D4914
:101CB00008803D4908603D4908603D4908603D494C
:101CC00008603D49088100BF00BF4046FEF7E0FACA
:101CD00000BF00BF00BF00BFFEF7D6FA804600BFBE
:101CE00000BF3648046800BF00BF4046FEF7D0FA88
:101CF00000BF00BF21E000BF00BFFEF7C5FA80466D
:101D000000BF00BF00207834E06320602063A06142
:101D1000A082E0826062A062FFF784FB2062783CD0
:101D200004F164060020B081D4F8BC4000BF00BFBD
:101D30004046FEF7ADFA00BF00BF002CDBD100BF6C
:101D400000BFFEF7A1FA804600BF00BF1C4805682F
:101D500000BF00BF4046FEF79BFA00BF00BF12E085
:101D600000BF00BFFEF790FA804600BF00BF05F13C
:101D700020060020B081AD6900BF00BF4046FEF7DD
:101D800087FA00BF00BF002DEAD103F0E3FA03F0A9
:101D90005DFD00203880BDE8F0810000600000207B
:101DA0005A000020AA000020BC000020D000002023
:101DB000DC0000208C000020F8280020C400002057
:101DC00080000020F8B5044600266946324800F03D
:101DD0008FFDBDF8000018B1BDF800002080F8BDEF
:101DE0006A460021022000F0F7FDBDF8000018B19E
:101DF000BDF800002080F2E700BF00BFFEF744FA04
:101E0000064600BF00BF00202449086000BF00BF95
:101E10003046FEF73DFA00BF00BF002520480068AD
:101E200020490968884205D91D4800681D4909688C
:101E3000B0FBF1F525B91A4800680A21B0FBF1F5AD
:101E40006A460021284600F0C7FD6946124800F0A6
:101E500063FABDF8000018B1BDF800002080BEE7AD
:101E600000BF00BFFEF710FA064600BF00BF00200B
:101E70000D490860094800680C49086001200C49B8
:101E8000087000BF00BF3046FEF702FA00BF00BF77
:101E90000020208000BFA2E78C2D0020AC00002095
:101EA0005866000840660008BC000020B000002012
:101EB000B800002010B50348006810B10148006860
:101EC000804710BD3C0000202DE9FF4F87B004463D
:101ED0009046DDE91BA5DDE91496179F00200390CD
:101EE00087480078002805DD47F24A1028800BB0AB
:101EF000BDE8F08F1CB947F2AD102880F7E7B8F1C4
:101F0000000F03D147F24F102880F0E71EB946F6C4
:101F10002F602880EBE77B480068874203D246F6B3
:101F200030602880E3E71698B84203D346F6316064
:101F30002880DCE7B9F1400F03D346F273202880F4
:101F4000D5E7B9F1000F06D16F48844203D046F2BD
:101F500073202880CBE7B9F13F0F06D16B4884424C
:101F600003D046F273202880C1E7204602F0B6FB7A
:101F7000002028800AF0010090B10AF0020078B138
:101F800005960020069008E000210598016005985C
:101F9000001D05900698401C06900698B842F3D3A1
:101FA000169806EB80000490CDE9007A3246404650
:101FB000049B0A9900F06EFB0590C4F828800A98EB
:101FC000E0620898206284F83790059820600498B1
:101FD000A06019986065199818B94D480068A06507
:101FE00001E01998A0651A9860606662A763A4F87A
:101FF0003CA04FF0000B08E0002104F17C0040F809
:102000002B100BF1010000F0FF0BBBF1000FF3D020
:1020100004F16400189901F0C3FB204600F082F837
:1020200000BF00BF00BFFEF72FF9039000BF00BF45
:1020300038480078401C3749087000BF00BF03983B
:10204000FEF726F900BF00BF00BF94F8370001F08B
:10205000C3FD204601F0DEFE204602F0F5FA2E48D0
:102060000088401C2C4908802C48007801282DD07D
:1020700000BF00BF00BFFEF707F9039000BF00BF1D
:1020800024480078401E2349087008460078A0B90B
:1020900023480088002809DD00BF00BF0398FEF731
:1020A000F7F800BF00BF01F023FF0DE000BF00BF45
:1020B0000398FEF7EDF800BF06E000BF00BF0398ED
:1020C000FEF7E6F800BF00BF00BF10E700BF00BF8B
:1020D00000BFFEF7D9F8039000BF00BF0D4800789D
:1020E000401E0C49087000BF00BF0398FEF7D0F8EF
:1020F00000BF00BF00BFFFF78FFC00BFF7E6000086
:102100004C0000205466000834280020702700206E
:102110009800002094000020C80000204D000020FE
:102120005800002010B504460348006818B1204646
:1021300001490968884710BD2C00002070B504468D
:102140000D46002667480078002803DD47F24E1050
:10215000288070BD6448844203D147F24C10288027
:10216000F7E76248844203D147F24D102880F0E738
:102170007CB900BF00BFFEF787F8064600BF00BF6E
:102180005B48046800BF00BF3046FEF781F800BF1F
:1021900000BF00BF00BF00BFFEF776F8064600BFD5
:1021A00000BF54480078401C5249087000BF00BF6F
:1021B0003046FEF76DF800BF00BF00BF94F8360050
:1021C00008282DD2DFE800F004090E10080A0F11CC
:1021D000204601F05FFE54E053E000BF204603F0CC
:1021E0009DF84EE000BF00BF00BF204603F096F808
:1021F00094F83400082810D2DFE800F0040705083E
:10220000090A0B0600BF00BF08E000BF00BF00BF07
:1022100000BF204601F011FC00E000BF00BF30E02D
:1022200000BF00BF00BFFEF72FF8064600BF00BF8B
:1022300030480078401E2F49087008460078A0B941
:102240002D480088002809DD00BF00BF3046FEF79A
:102250001FF800BF00BF01F04BFE0DE000BF00BF44
:102260003046FEF715F800BF06E000BF00BF30465D
:10227000FEF70EF800BF00BF00BF46F62D602880B5
:1022800067E700BF04F1640001F068FA204600F03F
:1022900037F8204602F0F0F918480088401E174928
:1022A0000880204602F01AFAFF2084F8360000BFAA
:1022B00000BF00BFFDF7E8FF064600BF00BF0D48A6
:1022C0000078401E0B49087000BF00BF3046FDF784
:1022D000DFFF00BF00BF00BF00202880FFF79CFB8E
:1022E00000BF36E74C000020702700203428002073
:1022F000EC0000209400002058000020C8000020BE
:1023000010B504460348006818B120460149096821
:10231000884710BD300000207FB504460D460026DA
:1023200000BF00BFFDF7B0FF064600BF00BF1CB1F5
:102330001548006884420AD100BF00BF3046FDF74F
:10234000A7FF00BF00BF47F2571028807FBD00BF26
:1023500000BF3046FDF79CFF00BF00BF0B48007870
:1023600000280BDD00200090019003460246214624
:10237000CDE90205064800F061FFE7E7294620465F
:1023800002F024FB00BFE1E7EC0000204C0000203D
:102390005452455310B504460348006818B120460E
:1023A00001490968884710BD340000202DE9F04735
:1023B00080460E4614461D464FF000097D480078C1
:1023C000002805DD46F2AE1028800020BDE8F08729
:1023D0001EB1B6F5004F02D100E000BF04E045F6A3
:1023E000256028800020F1E700BF0CB100202060AC
:1023F00000BF00BFFDF748FF814600BF00BF6E4829
:102400000068406CA8B36C480068406C401E6A4984
:102410000968486468480068476C1CB166480068F1
:10242000006C2060FEF7FEFF63490968096C401AE2
:1024300061490968C1F8A4005F480068D0F8A800A5
:102440005D490968D1F8A410884207D25A4800684B
:10245000D0F8A40058490968C1F8A80000BF00BF1F
:102460004846FDF715FF00BF00BF00202880384612
:10247000ACE7FFE706F4004058B100BF00BF484694
:10248000FDF706FF00BF00BF46F2B0102880002015
:102490009CE74A48007800280BDD00BF00BF484693
:1024A000FDF7F6FE00BF00BF46F66350288000200F
:1024B0008CE700BF41480078401C4049087000BFCD
:1024C00000BF4846FDF7E4FE00BF00BF00BF434623
:1024D00007220021084601F0F5F900BF00BF00BF48
:1024E000FDF7D2FE814600BF00BF34480078401E91
:1024F0003249087000BF00BF4846FDF7C9FE00BF63
:1025000000BF00BFFFF788FA00BF00BFFDF7BCFEA9
:10251000814600BF00BF2848006890F8350020B110
:10252000012826D0032834D12CE0FCB122480068D1
:10253000006C2060FEF776FF1F490968096C401A9D
:102540001D490968C1F8A4001B480068D0F8A8001C
:1025500019490968D1F8A410884207D216480068C2
:10256000D0F8A40014490968C1F8A8000020288008
:1025700013E01CB110480068006C206046F2A910FE
:1025800028800AE00CB10020206047F2D920288082
:1025900003E046F62E60288000BF00BF06480068B2
:1025A000476C00BF00BF4846FDF772FE00BF00BF8A
:1025B00038460BE74C000020EC000020940000207F
:1025C0002DE9F04705460E4617461C464FF0000A17
:1025D0002E480078002804DD47F259102080BDE81D
:1025E000F0871EB946F2D5202080F8E71FB946F2E1
:1025F000D5202080F3E700BF00BFFDF745FE8246EF
:1026000000BF00BF0DB922480568286868B900BF3F
:1026100000BF5046FDF73CFE00BF00BF0020306009
:10262000386047F252102080D9E795F83C0000F05E
:10263000010068B900BF00BF5046FDF729FE00BF8A
:1026400000BF00203060386047F254102080C6E799
:1026500000BF00BF5046FDF71BFE00BF00BF4FF09C
:102660000008D5F8249003E009F1040908F10108F5
:10267000D9F800000028F7D0C6F80080A86BA0EBBE
:10268000080038600020208000BFA8E74C00002030
:10269000EC000020F0B50446DDE9055602EB8500AC
:1026A00020F007004FF0000C071F3846C7F800C0A5
:1026B0004FF4805C071F3846C7F800C04FF0150C78
:1026C000071F3846C7F800C04FF0140C071F3846E4
:1026D000C7F800C04FF0130C071F3846C7F800C0FA
:1026E0004FF0120C071F3846C7F800C04FF0110C0E
:1026F000071F3846C7F800C04FF0100C071F3846B8
:10270000C7F800C04FF0090C071F3846C7F800C0D3
:102710004FF0080C071F3846C7F800C04FF0070CF1
:10272000071F3846C7F800C04FF0060C071F384691
:10273000C7F800C04FF0050C071F3846C7F800C0A7
:102740004FF0040C071F3846C7F800C04FF0030CC9
:10275000071F3846C7F800C04FF0020C071F384665
:10276000C7F800C04FF0010C071F3846C7F800C07B
:102770004FF0000C071F3846C7F800C04FF0807CB0
:10278000071F3846C7F800C0071F38463C60DFF80F
:102790005CC1071F3846C7F800C04FF0123C071F46
:1027A0003846C7F800C04FF0033C071F3846C7F84B
:1027B00000C04FF0023C071F3846C7F800C0071F93
:1027C00038463B60071F384639604FF0310C071F11
:1027D0003846C7F800C04FF0300C071F3846C7F81E
:1027E00000C04FF0290C071F3846C7F800C04FF053
:1027F000280C071F3846C7F800C04FF0270C071FEA
:102800003846C7F800C04FF0260C071F3846C7F8F7
:1028100000C04FF0250C071F3846C7F800C04FF026
:10282000240C071F3846C7F800C04FF0230C071FC1
:102830003846C7F800C04FF0220C071F3846C7F8CB
:1028400000C04FF0210C071F3846C7F800C04FF0FA
:10285000200C071F3846C7F800C04FF0190C071F9F
:102860003846C7F800C04FF0180C071F3846C7F8A5
:1028700000C04FF0170C071F3846C7F800C04FF0D4
:10288000160C071F3846C7F800C04FF0113C071F51
:102890003846C7F800C04FF0103C071F3846C7F84D
:1028A00000C04FF0093C071F3846C7F800C04FF082
:1028B000083C071F3846C7F800C04FF0073C071F09
:1028C0003846C7F800C04FF0063C071F3846C7F827
:1028D00000C04FF0053C071F3846C7F800C04FF056
:1028E000043C071F3846C7F800C0F0BD0D4B000878
:1028F0007FB505460C461248854203D147F25B106E
:1029000020807FBD0F48854203D147F25C102080B4
:10291000F7E70D48007800280BDD002000900190BB
:10292000034602462946CDE90204084800F086FC29
:10293000E7E72146284602F057FB00BFE1E7000029
:1029400070270020342800204C0000205453555399
:1029500010B51D48006810B11B4800688047FEF79D
:1029600061FD04461948006819490968884215D074
:1029700016480068D0F89800201A14490968C1F870
:10298000940012480068D0F89C0010490968D1F8FA
:10299000941008440D490968C1F89C000C4800686F
:1029A000C0F8984009480068D0F8B400094909689F
:1029B000884205D20748006804490968C1F8B40094
:1029C00000200449086010BD40000020EC000020F9
:1029D000F0000020900000202DE9F04105460E4651
:1029E000144600273F480078002804DD47F2752090
:1029F0002080BDE8F0813C480078002803DD46F6E1
:102A000063502080F5E736B1022E05D0042E0AD09F
:102A1000082E09D101E000BF00BF1DB947F27E209A
:102A20002080E6E704E003E045F625602080E0E74B
:102A300000BF00BF00BF00BFFDF726FC074600BF78
:102A400000BF29480078401C2749087000BF00BF1C
:102A50003846FDF71DFC00BF00BF00BF0120234921
:102A6000096881F836002346324629461F48006827
:102A700002F076FB2088A8B100BF00BF00BFFDF7C1
:102A800003FC074600BF00BF17480078401E1649E8
:102A9000087000BF00BF3846FDF7FAFB00BF00BF5B
:102AA00000BFA6E71148006801F0F4F900BF00BFBD
:102AB00000BFFDF7E9FB074600BF00BF0A480078EA
:102AC000401E0949087000BF00BF3846FDF7E0FB13
:102AD00000BF00BF00BFFEF79FFF0020208000BFA7
:102AE00087E700004C00002094000020EC0000204C
:102AF0002DE9FF5F05460E4617469846DDE90EA410
:102B00000020009072480078002804DD47F275200C
:102B10002080BDE8FF9F6F480078002803DD46F65F
:102B200063502080F5E70AF00E0BBBF1000F09D0CF
:102B3000BBF1020F07D0BBF1040F10D0BBF1080F9F
:102B40000ED101E000BF00BFB8F1000F06D12FB9D0
:102B500026B91DB947F27E202080DAE704E003E0C1
:102B600045F625602080D4E700BF2AF01E0008B19A
:102B7000012000E0002003900398012803D145F6CE
:102B800025602080C5E7CAF3001002900298C0B902
:102B9000B8F57A7F03D347F27B202080B9E73B2F3B
:102BA00003DD47F27A202080B3E73B2E03DD47F2B6
:102BB00079202080ADE7632D12DD47F27820208058
:102BC000A7E742F20F70864203DD47F279202080AA
:102BD0009FE7B5F57A7F03DB47F27820208098E7FE
:102BE0003D48D0F800904FF4FA70B0FBF9F0404443
:102BF00000FB09F04FF47A71B0FBF1F14FF4616022
:102C00006843C6EB061200EB8200384400FB091053
:102C100001900198002856D000BF00BF00BFFDF70B
:102C200033FB009000BF00BF2A480078401C2949B0
:102C3000087000BF00BF0098FDF72AFB00BF00BF6F
:102C400000BF01202549096881F8360023465A460D
:102C500022480199006802F083FA2088A8B100BFD9
:102C600000BF00BFFDF710FB009000BF00BF194878
:102C70000078401E1749087000BF00BF0098FDF79C
:102C800007FB00BF00BF00BF43E71448006801F026
:102C900001F900BF00BF00BFFDF7F6FA009000BFCA
:102CA00000BF0C480078401E0A49087000BF00BFF2
:102CB0000098FDF7EDFA00BF00BF00BFFEF7ACFEC5
:102CC0000020208002E047F27E20208000BF20E725
:102CD0004C0000209400002058660008EC00002002
:102CE00010B586B000F01EF8FEF79CFB044605A860
:102CF00000210091CDE9011403900748007800EB12
:102D00004000064A02EB800100231A46044800F006
:102D100095FA06B010BD00007A00002004290020BA
:102D20005449434B10B50348006810B1014800688E
:102D3000804710BD440000202448254825482648E7
:102D400026482748274828482848294829482A4803
:102D50002A482B482B482C482C482D482D482E48D3
:102D60002E482F482F4830483048314831483248A3
:102D70003248334833483448344835483548364873
:102D800036483748374838483848394839483A4843
:102D90003A483B483B483C483C483D483D483E4813
:102DA0003E483F483F4840484048414841484248E3
:102DB00042484348434844484448454845484648B3
:102DC00046484748474800BF704700009C660008D7
:102DD000046800089E6600089F660008A066000858
:102DE000A4660008A8660008A5660008D06600086A
:102DF000D1660008D2660008D4660008D6660008CE
:102E0000D8660008DA660008DC660008FC66000880
:102E1000FE660008006700080267000804670008F3
:102E2000066700080867000834670008356700086F
:102E300036670008386700083A6700083B670008F3
:102E40003C6700083E6700084067000842670008CA
:102E5000446700084667000848670008786700086C
:102E6000796700087A6700087B6700087C670008BC
:102E70007E67000880670008A8670008A967000847
:102E8000AA670008AB670008AC670008AE670008D7
:102E9000B0670008B4670008B5670008B6670008A7
:102EA000B7670008B8670008B9670008BA67000884
:102EB000BB670008BC670008BE670008BF67000862
:102EC000C0670008C2670008C4670008C56700083B
:102ED000C8670008FC670008FD670008FE67000877
:102EE00000680008026800080021034A1160034AD4
:102EF00011800180704700006400002068000020FD
:102F00002DE9F04F85B00446894692469B46DDF890
:102F100038800020009000BF00BFFDF7B5F9009099
:102F200000BF00BFBAF1000F0AD0BAF1010F0DD0F7
:102F3000BAF5004F05D06FF40040504460B906E088
:102F400000BF206A40EA0900206214E000BF206A46
:102F500020EA090020620EE000BF00BF0098FDF7E4
:102F600097F900BF00BF45F62560A8F800000020D3
:102F700005B0BDE8F08F00BFC4F824B004F108002C
:102F800001900198008958B900BF00BF0098FDF773
:102F90007FF900BF00BF0020A8F80000206AE7E723
:102FA00000BF61480078401C5F49087000BF00BF47
:102FB0000098FDF76DF900BF00BF00BF01980768DA
:102FC000BD687FE07868029095F8880000F00F00F7
:102FD00003900398012821D002282ED0042802D083
:102FE000082836D10EE0206AD5F8801000EA0106E4
:102FF000D5F88000B04204D15A463146284600F048
:1030000097F859E0206AD5F8801000EA010626B149
:103010005A463146284600F08BF84DE0D5F880003E
:10302000216A20EA0106D5F88000B04204D15A4650
:103030003146284600F07CF83EE0D5F88000216A51
:1030400020EA010626B15A463146284600F070F8BB
:1030500032E000BF00BF00BFFDF716F9009000BFCF
:1030600000BF31480078401E2F490870084600789C
:10307000A0B92E480088002809DD00BF00BF0098D5
:10308000FDF706F900BF00BF00F032FF0DE000BF02
:1030900000BF0098FDF7FCF800BF06E000BF00BFCE
:1030A0000098FDF7F5F800BF00BF00BF43F6FF2012
:1030B000A8F8000000205BE700BF029F0FB1BD68C9
:1030C00000E00025002D7FF47DAF00BF00BF00BFF2
:1030D000FDF7DAF8009000BF00BF13480078401EEB
:1030E0001149087000BF00BF0098FDF7D1F800BF7C
:1030F00000BF00BF0AF4004008B9FEF78DFC00BF16
:1031000000BFFDF7C1F8009000BF00BF206A049027
:1031100000BF00BF0098FDF7BBF800BF00BF002054
:10312000A8F80000049823E794000020580000202D
:1031300070B504460E46154634342665002060708E
:103140002070E560A078343C082816D2DFE800F053
:10315000040508090706101100BF00BF00BF0DE0FD
:1031600000BF204601F024FC002084F8360005E072
:1031700000BF042084F8360000E000BF00BF2046F6
:1031800000F05BFC70BD0000002400BF19E000BF30
:1031900000BFFDF779F8044600BF00BF094800688A
:1031A000401C0849086008480068401C064908603F
:1031B00000BF00BF2046FDF76BF800BF00BFFEF761
:1031C000C3FAE4E748000020AC00002010B58AB044
:1031D000044600200E4908600B2000210591CDE92E
:1031E0000704069108460B4909680B4A12680B4B05
:1031F0001B68CDE90132CDE903103F200023084AC6
:1032000008A100900C48FEF75FFE0AB010BD000058
:103210004800002000660008FC650008F86500080A
:103220008931000875432F4F532D4949492049647E
:103230006C65205461736B00702700202DE9F84FF6
:1032400004460D4616461F46DDE90BABDDF8289017
:10325000DDF834800020009000BF00BFFDF714F8B7
:10326000009000BF00BF2B4800882B490988884286
:103270003EDA28480088401C2649088027480088F4
:103280000988884203DA23480088244908802448B2
:103290000068046022480068856021480068C660B4
:1032A0001F48006807821E480068C0F814901C4838
:1032B0000068A0F818A01A480068C0F81CB01848A8
:1032C00000684068164908600120164908811648C0
:1032D00008604860002000F07FFC1448007818B1B6
:1032E00012480078124908700020A8F8000008E091
:1032F00010480088401C0F49088044F25360A8F829
:10330000000000BF00BF0098FCF7C2FF00BF00BF75
:10331000BDE8F88F580000200C6600085A00002015
:103320005000002004290020342800207A000020CA
:103330007C0000205C0000203EB559480068006811
:10334000584A811A904279D00FDC57490844002826
:103350003ED056490844A8B155490844002860D0D9
:103360005449084400286AD13FE0534808440028E3
:1033700050D052490844002862D0514908440028DE
:10338000F1D110E002A8464D00902D68EB69444D44
:103390002D682A8B424D2D686969414D2D68A868BA
:1033A000FFF7AEFD7AE002A93D480068C0693C4DD8
:1033B000CDE900012D682B8B394D2D682A8A384DB7
:1033C0002D68E968364D2D68A86800F035FC65E089
:1033D000334B1B68DA69324B1B68198B304B1B6807
:1033E000986802AB00F04EFE58E002A92C48006835
:1033F000C0692B4DCDE900012D682B8B284D2D6820
:103400002A8A274D2D68E968254D2D68A86801F0A6
:10341000C9F943E022490968886802A901F0D6FA8F
:103420003CE01F4B1B68DA691D4B1B68198B1C4B5A
:103430001B68986802AB01F075FB2FE007E02CE0F9
:1034400017490968886802A901F0CEFD26E01D49E8
:10345000097801EB41011C4A02EB810000F09EFD5E
:103460000F48006802AB0021C269184801F05AFBFE
:1034700017480068401E164908600846006858B999
:10348000144800680860FDF7CDFF044602AB2246F1
:103490000021114801F046FB00E000BF00BF3EBD27
:1034A000540000205449434BADBAB2BE0DF90BFA9B
:1034B000F2F8F7FF0006F6FF00F7FDF700FFEFFF59
:1034C00003FE0FFE7C00002004290020C82C0020F1
:1034D000E8000020E40000208C2D0020002700BF21
:1034E0004CE0002648E000BF00BFFCF7CDFE0746D9
:1034F00000BF00BF2248008888B900202149088108
:103500000860486000F07AFB00BF00BF3846FCF757
:10351000BFFE00BF00BFFEF77FFA01262CE000BF10
:1035200000BF3846FCF7B4FE00BF00BFFDF77AFFCE
:103530000546FFF701FFFDF775FF441B12480068C1
:10354000A04201D21048046000BF00BFFCF79CFEFF
:10355000074600BF00BF0D48006840680B4908607F
:1035600007480088401E0649088000BF00BF384653
:10357000FCF78EFE00BF00BF002EB4D0B1E7000004
:103580005800002004290020600000205400002082
:10359000F0B589B0054600203149088031480068FF
:1035A00020B944F25260288009B0F0BD2E4800884E
:1035B000022803DA44F254602880F5E700202B4902
:1035C0000860284804682646203600270CE0284872
:1035D00020600020A060E06020826061208366603F
:1035E00020342036781C87B21F4800888742EEDBE3
:1035F000203C1C48066866601E4806601E4806603F
:1036000000201E4908801E4908801E48006818B91D
:1036100044F255602880C7E71B4800681B490968C9
:10362000884203D244F256602880BDE7032000217F
:103630000591CDE90705069113480068144A126800
:10364000104B1B68CDE90301CDE9013200910B4617
:10365000104A11A11748FEF737FC00BFA4E700008D
:103660005C000020086600080C660008600000206E
:103670004E4F4E45500000205400002058000020BE
:103680005A000020146600081C66000854660008F2
:1036900018660008DD34000875432F4F532D494943
:1036A0004920495352205175657565205461736BEB
:1036B00000000000342800200021034A1160034A62
:1036C00011800180704700006C0000207000002015
:1036D00070B502460B461046114610315E1EB5B25B
:1036E000002408E00160002646600681C6601030B4
:1036F0001031661CB4B2AC42F4DB002606604660B2
:103700000681C66070BD000010B504461048006810
:1037100018B945F21E70208010BD0E48008818B9F7
:1037200045F21D702080F7E70A48018808480068C4
:10373000FFF7CEFF06480068074908600548008883
:1037400088800020C8800881208000BFE4E7000056
:103750003866000830660008F828002010B50146D9
:1037600048894B89002B17DD0A680C4B1B681360D6
:103770000A4C4B6823602346DB884C891B1B074C93
:10378000E38023469B884C892344044CA380002378
:103790004B818B810B604B6010BD0000F82800202E
:1037A00001810022428182810260426070470000F4
:1037B0002DE9F0410D46DDE90674B0F80AC0B0F815
:1037C0000880C44505DB46F2935CA4F800C0BDE860
:1037D000F081DFF8D4C0BCF804C0BCF1000F04D104
:1037E00045F21D7CA4F800C0F1E7DFF8BCC0DCF8AE
:1037F0000010DFF8B480D1F800C0C8F800C0C4469B
:10380000BCF804C0ACF1010CA8F804C0C446BCF874
:1038100006C00CF1010CA8F806C0C446BCF808C0EC
:10382000B8F80680C44507DADFF87CC0BCF806C0EB
:10383000DFF87480A8F808C0B0F80AC0BCF1000F27
:1038400006D1016041604FF0010CA0F80AC017E0FA
:1038500003F0100CBCF1000F07D1066831604FF087
:10386000000CC1F800C0016004E0D0F804C0C1F849
:1038700000C04160B0F80AC00CF1010CA0F80AC009
:10388000B0F80CC0B0F80A80C44503DAB0F80AC03A
:10389000A0F80CC04D600A81CF604FF0000CA4F876
:1038A00000C000BF93E70000F82800200021034A71
:1038B0001160034A118001807047000074000020ED
:1038C000780000202DE9F04105460C4616461F46BB
:1038D0001548006880F8346000201349096881F8B1
:1038E000350039461048006800F092FE6CB104F1D2
:1038F0000808EC60012229460B48006800F016F821
:103900002946404600F066F806E0002006490968AE
:10391000C88705490968086303480168204600F024
:1039200019F8BDE8F0810000EC00002010B5C28756
:10393000016300230AE000244C600C600C614C61C0
:103940000C83CC61886020315C1CA3B29342F2DB13
:1039500010BD000030B548B14568C1F8C05000F155
:103960000804226893681D6AC56113E091F8345019
:10397000022D02D0072D08D103E007A5C1F8C050E1
:1039800007E007A5C1F8C05003E008A5C1F8C05082
:1039900000BF00BF30BD00005461736B20510000B8
:1039A0005461736B2053656D00000000200000001F
:1039B00030B507A5C1F8C05000F1080422681AB15B
:1039C00093681D6AC56101E001A5C56130BD0000B5
:1039D00020000000F0B58E6896F8375007893FB98F
:1039E0000127078100274F600F600160416023E0DD
:1039F00007897F1C0781026806E0946894F8377095
:103A0000AF4200DD02E05268002AF6D100BF32B9B1
:103A100000274F6043680B60596041600CE01768F5
:103A20002FB9116000270F604A60016004E013683D
:103A30000B604A6059601160F0BD2DE9F041044609
:103A4000256BE68F0AE0D5F80C8008F108072946B7
:103A5000384600F00AF82035701E86B2002EF2DCDF
:103A60000020E0872063BDE8F08110B50489012CB7
:103A700003D100240460446011E00C6824B94A6852
:103A80000024146002600AE04C6824B90B6800242A
:103A90005C60436003E00B684A685A601360048905
:103AA000641E048100244C600C6010BD2DE9F843B5
:103AB00006460C4617469846089D94F83600082896
:103AC00050D2DFE800F00405080906072B2C00BFE0
:103AD00000BF00BF47E000BF94F83400032807D1BF
:103AE00043463A4621463046009500F03FF803E051
:103AF000E765A4F86080256436B12046FFF79DFF96
:103B000021463046FFF754FF204600F051FF0020C9
:103B10003434A070607004F8340924E000BF94F8D5
:103B20003400032807D143463A46214630460095E3
:103B300000F01CF803E0E765A4F8608025642046E7
:103B400001F0ECFB36B12046FFF777FF2146304607
:103B5000FFF72EFF04203434A0700020607004F8BA
:103B6000340900E000BF00BFBDE8F883F0B50446AB
:103B7000059E086BCD8F0AE0C768A74204D1046197
:103B800042610383C66104E020306F1EBDB2002D88
:103B9000F2DC00BFF0BD000070B50025074C03E06B
:103BA00005F12000C5B2241D20680028F8D0206847
:103BB000FCF775FB2844C5B2284670BD24000020E0
:103BC000002004E00021034A42F82010401C022893
:103BD000F8D370472400002030B5420900F01F03DD
:103BE0000121C3F11F04A140034C54F822400C43AF
:103BF000014D45F8224030BD2400002030B5420977
:103C000000F01F030121C3F11F04A140034C54F82D
:103C100022408C43014D45F8224030BD2400002055
:103C20000021034A1160034A11800180704700009F
:103C300080000020840000202DE9F04F85B0074669
:103C40008A4693461C460020029000BF00BF00BF7A
:103C5000FCF71AFB029000BF00BF48480078401CE8
:103C60004649087000BF00BF0298FCF711FB00BF77
:103C700000BF00BF07F108063089002842D104F0D8
:103C8000100010B94FF0000801E04FF01008DDE916
:103C90000E0143465A46CDE90001514607F1200086
:103CA000FFF786FD00BF00BF00BFFCF7EDFA0290F2
:103CB00000BF00BF31480078401E304908700846F8
:103CC0000078A0B92E480088002809DD00BF00BF99
:103CD0000298FCF7DDFA00BF00BF00F009F90DE023
:103CE00000BF00BF0298FCF7D3FA00BF06E000BF98
:103CF00000BF0298FCF7CCFA00BF00BF00BF05B0C0
:103D0000BDE8F08F04F4007008B1358900E00125AA
:103D1000D6F8009011E0D9F808000390D9F8040013
:103D200004900E985B465246009038460399FFF780
:103D3000BDFEDDF81090681E85B2002DEBD100BFEE
:103D400000BF00BFFCF7A0FA029000BF00BF0B4805
:103D50000078401E0949087000BF00BF0298FCF7B8
:103D600097FA00BF00BF00BF04F4004008B9FDF798
:103D700053FE00210F98018000BFC0E7940000208F
:103D80005800002000210AE001EB4102054B03EB43
:103D9000820000220281026042604A1CD1B24029A6
:103DA000F2D370470429002010B5044694F8370078
:103DB000FFF712FF94F8370005490978884203D1CC
:103DC000204600F027F802E0204600F003F810BD7E
:103DD0007A00002010B590F8373003EB43030C4C09
:103DE00004EB83010B893BB901230B810023C360E2
:103DF00003610860486009E00B895B1C0B810B685C
:103E0000C360002303610A681061086010BD0000F0
:103E10000429002010B590F8373003EB43030B4C16
:103E200004EB83010B893BB901230B810023C360A1
:103E300003610860486008E00B895B1C0B8100236C
:103E4000C3604A680261D060486010BD0429002048
:103E500010B501460C8924B1012C03D0022C0CD1E1
:103E600001E000BF14E008684A6802610024C460F1
:103E70001461D0600A6048600AE008684A68C36854
:103E800000241C61C4600261D0600B60486000BF08
:103E900000BF10BD2DE9F041054695F8370000EB55
:103EA0004000124901EB80042F69EE6887B946B9DA
:103EB000002020812060606095F83700FFF79EFEAB
:103EC0000EE02089401E208100203061266007E03E
:103ED0002089401E2081FE600EB9676000E03761D6
:103EE00000202861E860BDE8F0810000042900207E
:103EF00010B5002400BFFCF7C7F9044600BF00203E
:103F00000C4908700C480D49086008460068D0F854
:103F10009000401C0968C1F8900009480068401CE6
:103F200007490860FDF7E3F900BF2046FCF7B0F948
:103F300000BF10BD7B00002034280020F0000020CE
:103F4000C000002010B504480078012803D1FDF717
:103F500069FA0249086010BD940000208800002022
:103F600010B50A48007880B9FDF75CFA084909687D
:103F7000441A08480068A04201D206480460064876
:103F80000068A04201D20448046010BD94000020E3
:103F9000880000208C0000209000002070B50546AD
:103FA00000262E480078012800D070BD00BF00BF59
:103FB000FCF76AF9064600BF00BF2C683CB900BF99
:103FC00000BF3046FCF764F900BF00BFEDE72448AE
:103FD000844207D100BF00BF3046FCF759F900BF4B
:103FE00000BFE2E7A06D10B1A06D401EA065A06DFE
:103FF00038B100BF00BF3046FCF74AF900BF00BF30
:10400000D3E72889022807DA00BF00BF3046FCF753
:104010003FF900BF00BFC8E712480078002807DD5D
:1040200000BF00BF3046FCF733F900BF00BFBCE75C
:104030002846FFF70DFF2C68606D18B90A48006824
:10404000A06501E0606DA06500BF00BF3046FCF7D1
:104050001FF900BF00BF00BFA7E700009C000020C1
:104060007027002094000020980000200021034ABF
:104070001160034A1180018070470000A0000020F9
:10408000A40000202DE9FF5F0446884691461D46A6
:104090000020019000BF00BFFCF7F6F8019000BFC0
:1040A00000BF04F10807388900284FD104200128F7
:1040B00004D0022814D0042834D123E0206AFF2839
:1040C0000DD100BF00BF0198FCF7E2F800BF00BFB0
:1040D00046F6C5502880002004B0BDE8F09F22E0DD
:1040E0004FF6FF71206A88420BD100BF00BF0198D4
:1040F000FCF7CEF800BF00BF46F6C5502880002070
:10410000EAE710E0206A401C58B900BF00BF0198E0
:10411000FCF7BEF800BF00BF46F6C550288000205F
:10412000DAE700E000BF00BF206A401C2062D4F83C
:1041300020A0C4F8249000BF00BF0198FCF7A8F8A5
:1041400000BF00BF002028805046C5E700BF2548BB
:104150000078401C2349087000BF00BF0198FCF79D
:1041600097F800BF00BF00BF08F4007008B13E8997
:1041700000E00126D7F800B011E0DBF8080002905B
:10418000DBF80400039000231A46CDF80090204687
:104190000299FFF78BFCDDF80CB0701E86B2002E82
:1041A000EBD1D4F820A000BF00BF00BFFCF76CF833
:1041B000019000BF00BF0B480078401E09490870FD
:1041C00000BF00BF0198FCF763F800BF00BF00BF4D
:1041D00008F4004008B9FDF71FFC00202880504675
:1041E0007AE700009400002086B00020009000BF15
:1041F00006E0C3490968480001AA0021FEF7ECFB6C
:10420000C04800780128F4D101A8FDF73FFD002740
:10421000BD480068BA490968884205D9BA480068AB
:10422000B7490968B0FBF1F727B9B74800680A2118
:10423000B0FBF1F762E1FDF7F5F8804600BF00BF83
:10424000FCF722F8009000BF00BFB0480068B049FA
:1042500008600020AD49086000BF00BF0098FCF76F
:1042600017F800BF00BFAB480068A9490968884239
:1042700048D9A8480068A849884205D242F210707F
:1042800003900120029023E0A2480068A3498842DD
:1042900005D24FF47A7003900A20029018E09D48EE
:1042A00000689F49884203D26420039002900FE087
:1042B000984800689B49884205D20A2003904FF431
:1042C0007A70029004E00120039042F21070029094
:1042D000904801680298B1FBF0FA8D49039809688B
:1042E0004843B0FBFAF042F21071081A8E49088078
:1042F0008E4800880988884208DA8B4800888B49F4
:10430000088003E042F2107087490880FDF7D2FD73
:10431000002500BF00BFFBF7B7FF009000BF00BF44
:104320008348046800BF00BF0098FBF7B1FF00BFDF
:1043300000BF5AE000BF00BF00BFFBF7A5FF009021
:1043400000BF00BF7B480078401C7A49087000BF5E
:1043500000BF0098FBF79CFF00BF00BF00BF54F8F0
:104360009C0F6060002044F89C0900BF00BF00BFA4
:10437000FBF78AFF009000BF00BF6E480078401E28
:104380006C49087008460078A0B96B48008800287E
:1043900009DD00BF00BF0098FBF77AFF00BF00BF38
:1043A000FFF7A6FD0DE000BF00BF0098FBF770FF10
:1043B00000BF06E000BF00BF0098FBF769FF00BF29
:1043C00000BF00BFD4F8A000054400BF00BFFBF74A
:1043D0005BFF009000BF00BFD4F8BC4000BF00BF2F
:1043E0000098FBF755FF00BF00BF002CA2D145B3DA
:1043F0004948854205D242F2107005904FF0010BFA
:104400001BE04648854205D24FF47A7005904FF084
:104410000A0B12E04248854203D26420059083468D
:104420000BE04048854204D20A2005904FF47A7B85
:1044300003E00120059042F2107BB5FBFBF00490F5
:1044400003E0002005900120049000BF00BFFBF7AF
:104450001BFF009000BF00BF3548046800BF00BFCD
:104460000098FBF715FF00BF00BF2BE0D4F8A000B9
:10447000059948430499B0FBF1F086B242F21070FE
:10448000864200D90646A4F88C60B4F88E00B0428B
:1044900001DAA4F88E6001AB04F1AC02111D2046D4
:1044A000FEF78EF800BF00BFFBF7EEFE009000BFE6
:1044B00000BFD4F8BC4000BF00BF0098FBF7E8FE87
:1044C00000BF00BF002CD1D11C480078012805D1C5
:1044D00000201A49087001A8FDF7D8FBFCF7A2FFDD
:1044E000A0EB080916480068484502D21448C0F8F5
:1044F000009001AA00213846FEF76EFA9BE6000004
:1045000040660008B800002058660008AC00002093
:10451000B4000020B0000020801A060000093D0011
:10452000005A62020084D717A8000020AA000020C9
:10453000C40000209400002058000020A6000020A5
:10454000BC00002010B58AB0044600201F49086056
:104550001F4908601F4908601F4908701F490870FB
:104560001F48006820B946F62B6020800AB010BDB5
:104570001C4800681C490968884203D246F62C6032
:104580002080F3E7194800783F2803D346F62A60D5
:104590002080EBE7032000210591CDE90704069177
:1045A000084610490968124A12680D4B1B68CDE98C
:1045B0000132CDE903100D48007800230D4A0EA109
:1045C00000901248FDF780FC00BFCFE7AC00002050
:1045D000B4000020B0000020B8000020A600002099
:1045E000446600084C660008546600083C660008F3
:1045F00048660008E941000875432F4F532D49498B
:10460000492053746174205461736B00042C0020A2
:1046100038B504460D4685B16B4602222946204630
:1046200000F09EFDBDF8000018B9032084F83600A4
:1046300006E0022084F8360002E0022084F836000A
:104640002046FFF727FC38BD0021C0F8B810094903
:10465000096819B90021C0F8BC1007E005490968CC
:10466000C0F8BC1003490968C1F8B80001490860E6
:1046700070470000C4000020D0F8B820D0F8BC106B
:104680004AB90D4B196011B10023C1F8B8300023AD
:10469000C0F8BC300FE029B90023C2F8BC30C0F824
:1046A000B83008E0C2F8BC10C1F8B8200023C0F848
:1046B000BC30C0F8B8307047C40000200021044A64
:1046C0001160044A1180044A1160018070470000A3
:1046D000C4000020C8000020C000002070B50446BF
:1046E00000202060A0606060E06020616061A061E7
:1046F000E06129A0206200206062A062E062206484
:10470000E065A4F86000002104F16400FFF748F8B8
:10471000002044F8740F6060E060A0822061743C67
:10472000002506E0002104F17C0040F82510681CFB
:10473000C5B2002DF6D000203434206120676067B8
:10474000606084F85600E067A06720814FF0004069
:1047500060610020A061E06120626062A4F85800FE
:10476000A4F85A00E0652066FCF75CFE0646666623
:104770000020A066C4F8800020706070A070402007
:10478000E0700020C4F88400C4F8880004A0C4F8D5
:104790008C00343C70BD00003F5461736B0000001E
:1047A000200000002DE9FC4704460F46904699463C
:1047B000DDE90A654FF0000A00BF00BF00BFFBF74C
:1047C00063FD824600BF00BF76480078401C7549F3
:1047D000087000BF00BF5046FBF75AFD00BF00BF86
:1047E00000BF0CB9704804680020288094F8360097
:1047F00008287DD2DFE800F004053E3F060740416F
:1048000000BF00BF00BF4B464246394604F164007A
:10481000CDE90065FEF7CCFF00BF00BF00BFFBF78E
:1048200033FD824600BF00BF5E480078401E5D49F0
:10483000087008460078A0B95C480088002809DDA7
:1048400000BF00BF5046FBF723FD00BF00BFFFF7CE
:104850004FFB0DE000BF00BF5046FBF719FD00BF46
:1048600006E000BF00BF5046FBF712FD00BF00BFCF
:1048700000BF93E000BF00BF00BF94F834000228DF
:1048800021D143463A46214600200096FFF70EF913
:1048900000BF00BF00BFFBF7F7FC824600BF00BFB0
:1048A00040480078401E3F49087000BF00BF504696
:1048B000FBF7EEFC00BF00BF00BF09F4004090BB57
:1048C000FDF7AAF838E04B464246394604F1640049
:1048D000CDE90065FEF76CFF00BF00BF00BFFBF72E
:1048E000D3FC824600BF00BF2E480078401E00E087
:1048F00023E02C49087008460078A8B92B480088A6
:10490000002809DD00BF00BF5046FBF7C1FC00BF17
:1049100000BFFFF7EDFA0EE000BF00BF5046FBF707
:10492000B7FC00BF07E007E000BF00BF5046FBF741
:10493000AFFC00BF00BF00BF30E000BF00BF00BF42
:10494000FBF7A2FC824600BF00BF16480078401E5D
:104950001449087008460078A0B914480088002857
:1049600009DD00BF00BF5046FBF792FC00BF00BF4F
:10497000FFF7BEFA0DE000BF00BF5046FBF788FC12
:1049800000BF06E000BF00BF5046FBF781FC00BF40
:1049900000BF00BF46F62D60288000BF00BFBDE805
:1049A000FC87000094000020EC000020580000204C
:1049B00010B50446204600F0B1FC94F8360000F033
:1049C000040010B92046FFF7EFF910BD70B504469A
:1049D0000D46002600BF00BFFBF756FC064600BF91
:1049E00000BF0020288094F8360008287BD2DFE83A
:1049F00000F0040506071243556700BF00BF00BF63
:104A000000BF00BF3046FBF743FC00BF00BF47F2CA
:104A10005310288072E000BF3B480078401C3A49A0
:104A2000087000BF00BF3046FBF732FC00BF00BF7C
:104A300000BF14F88A0F401E207014F88A0928B9A4
:104A4000002084F836002046FFF7B2FF00BF00BF09
:104A500000BFFBF719FC064600BF00BF2A480078DC
:104A6000401E2949087000BF00BF3046FBF710FC0C
:104A700000BF00BF00BF41E014F88A0F401E207045
:104A800014F88A0910B9012084F8360000BF00BF6D
:104A90003046FBF7FDFB00BF00BF2FE014F88A0F84
:104AA000401E207014F88A0910B9022084F83600DC
:104AB00000BF00BF3046FBF7EBFB00BF00BF1DE0AF
:104AC00014F88A0F401E207014F88A0910B90320C8
:104AD00084F8360000BF00BF3046FBF7D9FB00BFAB
:104AE00000BF0BE0FFE700BF00BF3046FBF7D0FB85
:104AF00000BF00BF46F62D60288070BD00BFFCF7E8
:104B00008BFF00BFF9E700009400002008B50448BF
:104B10000068FDF73FFC69460020FDF70FFB08BD6C
:104B2000EC0000202DE9F8430446884617461D4650
:104B30004FF0000900BF00BF00BFFBF7A5FB814697
:104B400000BF00BFFE480078401CFD49087000BF50
:104B500000BF4846FBF79CFB00BF00BF00BF0CB97D
:104B6000F848046827640020288094F83600082854
:104B700071D2DFE800F00405EBEC0607EDEE00BFB4
:104B800000BF00BF0420012804D0022839D0042827
:104B90006FD170E0606CFF2832D100BF00BF00BF52
:104BA000FBF772FB814600BF00BFE5480078401E5E
:104BB000E349087008460078A0B9E3480088002857
:104BC00009DD00BF00BF4846FBF762FB00BF00BF26
:104BD000FFF78EF90DE000BF00BF4846FBF758FB1A
:104BE00000BF06E000BF00BF4846FBF751FB00BF17
:104BF00000BF00BF46F6C55028800020BDE8F883FE
:104C000071E04FF6FF71606C884233D100BF00BF86
:104C100000BFFBF739FB814600BF00BFC8480078E2
:104C2000401EC749087008460078A8B9C6480088E1
:104C3000002809DD00BF00BF4846FBF729FB00BF85
:104C400000BFFFF755F90EE000BF00BF4846FBF775
:104C50001FFB00BF07E08DE100BF00BF4846FBF728
:104C600017FB00BF00BF00BF46F6C55028800020DC
:104C7000C4E737E037E0606C401C88BB00BF00BF72
:104C800000BFFBF701FB814600BF00BFAC480078C6
:104C9000401EAB49087008460078A0B9AA480088B1
:104CA000002809DD00BF00BF4846FBF7F1FA00BF4E
:104CB00000BFFFF71DF90DE000BF00BF4846FBF73E
:104CC000E7FA00BF06E000BF00BF4846FBF7E0FA86
:104CD00000BF00BF00BF46F6C550288000208DE70A
:104CE000FFE700E000BF00BF606C401C6064666CC2
:104CF00000BF00BF00BFFBF7C7FA814600BF00BF7F
:104D00008F480078401E8E49087008460078A0B988
:104D10008D480088002809DD00BF00BF4846FBF72A
:104D2000B7FA00BF00BFFFF7E3F80DE000BF00BF18
:104D30004846FBF7ADFA00BF06E000BF00BF48469B
:104D4000FBF7A6FA00BF00BF00BF45E100BF00BFF0
:104D500000BF94F83400072823D100231A462146C7
:104D600018460097FEF7A2FE666C00BF00BF00BFAA
:104D7000FBF78AFA814600BF00BF71480078401EE9
:104D80006F49087000BF00BF4846FBF781FA00BFBB
:104D900000BF00BF08F40040002801D1FCF73CFE32
:104DA000E7E00420012804D0022838D004286ED17E
:104DB0006EE0606CFF2831D100BF00BF00BFFBF781
:104DC00063FA814600BF00BF5D480078401E5C4921
:104DD000087008460078A0B95B480088002809DD03
:104DE00000BF00BF4846FBF753FA00BF00BFFFF704
:104DF0007FF80DE000BF00BF4846FBF749FA00BF4F
:104E000006E000BF00BF4846FBF742FA00BF00BF04
:104E100000BF46F6C55028800020EFE670E04FF650
:104E2000FF71606C884231D100BF00BF00BFFBF74B
:104E30002BFA814600BF00BF41480078401E404920
:104E4000087008460078A0B93F480088002809DDAE
:104E500000BF00BF4846FBF71BFA00BF00BFFFF7CB
:104E600047F80DE000BF00BF4846FBF711FA00BF4E
:104E700006E000BF00BF4846FBF70AFA00BF00BFCC
:104E800000BF46F6C55028800020B7E638E036E07F
:104E9000606C401C88BB00BF00BF00BFFBF7F4F98B
:104EA000814600BF00BF26480078401E2449087094
:104EB00008460078A0B924480088002809DD00BF12
:104EC00000BF4846FBF7E4F900BF00BFFFF710F84A
:104ED0000DE000BF00BF4846FBF7DAF900BF06E06F
:104EE00000BF00BF4846FBF7D3F900BF00BF00BFBB
:104EF00046F6C5502880002080E6FFE700E000BFAE
:104F000000BF606C401C6064666C00BF00BF00BFE7
:104F1000FBF7BAF9814600BF00BF09480078401E80
:104F20000749087008460078D8B907480088002863
:104F300010DD00BF00BF4846FBF7AAF900BF05E03F
:104F400094000020EC0000205800002000BFFEF775
:104F5000CFFF0DE000BF00BF4846FBF799F900BF47
:104F600006E000BF00BF4846FBF792F900BF00BF54
:104F700000BF31E000BF00BF00BFFBF785F98146ED
:104F800000BF00BF16480078401E1549087008464B
:104F90000078A0B913480088002809DD00BF00BFD1
:104FA0004846FBF775F900BF00BFFEF7A1FF0DE013
:104FB00000BF00BF4846FBF76BF900BF06E000BF2B
:104FC00000BF4846FBF764F900BF00BF00BF46F6CC
:104FD0002D602880002600BF00BF30460EE600008E
:104FE000940000205800002070B504460D460026AD
:104FF00000BF00BFFBF748F9064600BF00BF0CB971
:105000004B4804684A48006884420ED149480078F9
:1050100000280ADD00BF00BF3046FBF739F900BFAA
:1050200000BF46F66350288070BD0020288094F8A9
:10503000360008286CD2DFE800F004313F4D5B5C9D
:105040005D5E00BF3B480078401C3A49087000BFD5
:1050500000BF3046FBF71CF900BF00BF00BF0420B3
:1050600084F83600012084F88A002046FEF712FFFB
:1050700000BF00BF00BFFBF707F9064600BF00BF37
:105080002C480078401E2B49087000BF00BF3046F6
:10509000FBF7FEF800BF00BF00BF44E0052084F826
:1050A0003600012084F88A0000BF00BF3046FBF7BD
:1050B000EFF800BF00BF36E0062084F8360001207C
:1050C00084F88A0000BF00BF3046FBF7E1F800BF5C
:1050D00000BF28E0072084F83600012084F88A0009
:1050E00000BF00BF3046FBF7D3F800BF00BF1AE097
:1050F00000BF00BF00BF94F88A00401C84F88A00FB
:1051000000BF00BF3046FBF7C3F800BF00BF0AE096
:1051100000BF00BF3046FBF7BBF800BF00BF46F63C
:105120002D60288080E700BFFCF776FC00BF7BE79E
:10513000EC00002094000020002108E0064A02EB69
:10514000C100002202608280C2804A1C91B2034AE0
:1051500012889142F2DB70476024002070660008DC
:105160002DE9F04F0C4616461D46042E1ED1DFF8E1
:10517000A091D9F80090A4EB0909A9F1010313F556
:10518000803F0DD94FF00009C0F84C90C0F8509006
:10519000C0F81C9047F27E29A5F80090BDE8F08F7A
:1051A000C46403F10109C0F850903FE084B3082EB5
:1051B00025D1D0F8489009EB0407DFF85491D9F8CD
:1051C0000090A7EB0909A9F10103A34201D2C7642A
:1051D00006E0DFF83C91D9F80090A144C0F84C906B
:1051E000DFF82CA1D0F84C90DAF800A0A9EB0A095E
:1051F000C0F85090D0F84C90C0F8489016E0DFF816
:105200001091D9F80090A144C0F84C9004650DE0CD
:10521000FFE74FF00009C0F84C90C0F85090C0F87C
:105220001C9047F27E29A5F80090B7E7DFF8E4A0CC
:10523000BAF800A0D0F84C90B9FBFAFB0AFB1B9916
:105240001FFA89F8DFF8D09009EBC802B2F8049091
:10525000B9F1000F0BD14FF00009C0F81490C0F85D
:10526000189010604FF00109A2F804903EE0116818
:1052700034E0DFF89CA0D1F84C90DAF800A0A9EB5C
:105280000A09C1F85090D0F85090D1F850A0D145FB
:105290000ED9D1F81490B9F1000F01D049691DE081
:1052A0004FF00009C0F8149081614861002115E0B9
:1052B000D1F81890B9F1000F07D14FF00009C0F8EC
:1052C000189041618861106007E0D1F818C0C0F8FB
:1052D00018C04161CCF81400886100210029C8D1B0
:1052E000B2F8049009F10109A2F80490B2F806900E
:1052F000B2F804A0D14503DAB2F80490A2F80690FF
:10530000C2614FF00009A5F8009000BF46E7000019
:10531000CC000020706600086024002010B5C2692F
:10532000BAB1002404651468844205D14169116052
:1053300039B100248C6104E0816943694B6103B198
:105340009961002444618461C461C4649488641ECA
:10535000948010BD002006E0054A02EBC001002247
:10536000CA80421C90B2034A12889042F4DB704714
:1053700060240020706600082DE9F05F4FF0000BFC
:1053800000BF00BF00BFFAF77FFF834600BF00BF2A
:1053900071480078401C7049087000BF00BF584633
:1053A000FAF776FF00BF00BF00BFFCF73BF80546E9
:1053B0006A480068401C69490860084600686849F6
:1053C0000988B0FBF1F201FB12001FFA80FA654870
:1053D00000EBCA08D8F80040002782E0002C7FD0FC
:1053E000D4F8149094F83600082875D2DFE800F05D
:1053F0000408051B063D075000BF00BF00BF6CE05E
:105400005649E06C0968401A20655449E06C096807
:10541000884206D1002084F836002046FFF7C8FAFB
:1054200000E0012759E04D49E06C0968401A206509
:105430004A49E06C0968884215D10020E065A4F86B
:105440006000FBF7EFFF20642046FEF7F6FA2046E7
:10545000FFF7AEFA00203434A07003206070002003
:1054600004F8340900E0012737E03C49E06C0968A2
:10547000401A20653949E06C0968884206D1042049
:1054800084F836002046FFF749FF00E0012724E0BA
:105490003249E06C0968401A20653049E06C0968BF
:1054A000884217D10020E065A4F86000FBF7BAFF3E
:1054B00020642046FEF7C1FA2046FFF72FFF0420A4
:1054C0003434A07003206070002004F8340902E036
:1054D00006E001E0012700E000BF00BF4C4600E00D
:1054E0000127002F3FF47AAFFBF79CFF461B1E48B5
:1054F0000068B04201D21C48066000BF00BF00BF78
:10550000FAF7C2FE834600BF00BF13480078401E72
:105510001149087008460078A0B91448008800288E
:1055200009DD00BF00BF5846FAF7B2FE00BF00BF5A
:10553000FEF7DEFC0DE000BF00BF5846FAF7A8FEFC
:1055400000BF06E000BF00BF5846FAF7A1FE00BF4B
:1055500000BF00BFBDE8F09F94000020CC000020F9
:105560007066000860240020D00000205800002051
:105570001CB500BF0EE001AB6A4600210846FCF7EF
:1055800015FFBDF8040028B903480078012801D1AF
:10559000FFF7F2FEEFE700004D00002010B58AB0E3
:1055A000044600201D4908601D490860FFF7C4FD3E
:1055B0001C48006820B947F2122020800AB010BDB4
:1055C0001948006819490968884203D247F2132034
:1055D0002080F3E7164800783F2803D347F21120D4
:1055E0002080EBE70B20002105910A46CDE9070456
:1055F00006910D4800680F4909680A4B1B68CDE900
:105600000131CDE903020A48007800230A4A0BA1C0
:1056100000900F48FCF758FC00BFCFE7CC000020FB
:10562000D000002060660008686600085466000824
:105630005C660008646600087155000875432F4FCA
:10564000532D494949205469636B205461736B00A1
:10565000C82C002070B58AB004460020314908608B
:105660003148006840B1314800682F490968B0FBF3
:10567000F1F02F49086006E02C4800680A21B0FBD1
:10568000F1F02B4908602A4800682A490860002088
:105690002949086029490860002508E0284800EBEE
:1056A000C5060020B080F0803060681C85B22548B7
:1056B00000888542F2DB2448006820B947F2473071
:1056C00020800AB070BD21480068214909688842DD
:1056D00003D247F248302080F3E71E4800783F2885
:1056E00003D347F246302080EBE70B2000210591E1
:1056F000CDE907040691084614490968164A12685C
:10570000114B1B68CDE90132CDE903101148007837
:105710000023124A12A100901748FCF7D5FB00BFE6
:10572000CFE70000D40000207C660008586600081F
:10573000E4000020E8000020E0000020DC00002061
:10574000E826002090660008806600088866000849
:1057500054660008786600088466000871580008DE
:1057600075432F4F532D4949492054696D65722067
:105770005461736B000000008C2D0020F0B50C46C6
:10578000022680F82A60012C05D12D4F466A3F6819
:105790003E4486610CE0066A2EB9294F466A3F688E
:1057A0003E44866104E0264F066A3F683E448661B7
:1057B000244F3F888669B6FBF7FC07FB1C66B5B231
:1057C000214E06EBC502166836B900260661466111
:1057D0001060012696802CE0194F86693F68F61B01
:1057E000C661116820E0164F8E693F68F61BCE61D6
:1057F000C669CF69BE4209D90E690EB1096913E0C5
:10580000002606614161086100210DE04E692EB954
:105810000026466101614861106004E04B69436104
:1058200001611861486100210029DCD19688761C4D
:105830009680D6889788BE4201DA9688D680F0BDD9
:10584000E000002090660008E8260020002006E026
:10585000054A02EBC0010022CA80421C90B2034AF2
:1058600012889042F4DB7047E8260020906600081A
:105870001CB500BF53E001AB6A4600210846FCF7A7
:1058800095FD01A8FCF718F9FBF7CCFD0646244866
:105890000068401C224908600846006821490988C0
:1058A000B0FBF1F201FB12001FFA80FA1E4800EB78
:1058B000CA08D8F800404FF0000B21E0F4B1D4F84A
:1058C00010901749A0690968884214D1204600F059
:1058D0002FF8208D022804D101212046FFF74EFF2A
:1058E00002E0032084F82A00A56815B12046E1688B
:1058F000A8474C4604E04FF0010B01E04FF0010BCC
:10590000BBF1000FDAD0FBF78DFD871B01A8FCF778
:105910003FF906480068B84201D204480760AAE788
:10592000E000002090660008E8260020DC0000204F
:10593000F0B5114E36888569B5FBF6F706FB1755AD
:10594000ACB20E4D05EBC4021568854205D1016964
:10595000116039B100254D6104E0416903690B61B3
:1059600003B15961012580F82A5000250561456180
:1059700095886D1E9580F0BD90660008E826002091
:1059800029B1064A12680243044B1A6004E0034A34
:1059900012688243014B1A607047000030380240A1
:1059A00029B1064A12680243044B1A6004E0034A14
:1059B00012688243014B1A6070470000443802406D
:1059C000F0B5002100220024022500260223324FD8
:1059D0003F6807F00C0121B1042905D0082937D10F
:1059E00005E02E4F076036E02D4F076033E02A4F69
:1059F0003F1F3F68C7F38056274F3F1F3F6807F0A0
:105A00003F036EB1264FB7FBF3F7DFF88CC0ACF164
:105A1000040CDCF800C0CCF3881C07FB0CF40CE091
:105A20001E4FB7FBF3F7DFF870C0ACF1040CDCF8E5
:105A300000C0CCF3881C07FB0CF4174F3F1F3F68D6
:105A4000C7F301477F1C7D00B4FBF5F7076002E058
:105A5000124F076000BF00BF0F4F3F6807F0F00113
:105A60000909104F7A5C0768D74047600A4F3F68C2
:105A700007F4E051890A0B4F7A5C4768D74087608A
:105A8000054F3F6807F46041490B064F7A5C476851
:105A9000D740C760F0BD0000083802400024F40081
:105AA00040787D0100000020704700000CB5002008
:105AB000019000903448006840F48030324908601A
:105AC00000BF3148006800F4003000900198401C8D
:105AD0000190009818B90198B0F5A04FF1D12A486B
